:020000040800F2
:100000000050002021020008270200082B020008EF
:100010009D020008A1020008E9020008000000009B
:100020000000000000000000000000003103000894
:100030003503000800000000390300083D030008F4
:100040004D0300084D0300084D0300084D03000850
:100050004D0300084D0300084D0300084D03000840
:100060004D0300084D0300084D0300084D03000830
:100070004D0300084D0300084D0300084D03000820
:100080004D0300084D0300084D0300084D03000810
:100090004D0300084D0300084D0300084D03000800
:1000A0004D0300084D0300084D0300084D030008F0
:1000B0004D0300084D0300084D0300084D030008E0
:1000C0004D0300084D0300084D0300084D030008D0
:1000D0004D0300084D0300084D0300084D030008C0
:1000E0004D0300084D0300084D0300080000000008
:1000F0000000000000000000000000000000000000
:1001000000000000000000005FF808F100B583B0B7
:1001100000F0AAF9304B314A1360314A1360314B79
:10012000314A32498B4204D21168196004330432D7
:10013000F7E72A4B1A682E4B9A4200D0FEE7284B6D
:100140001A682C4B9A42F9D1234B2B4A13602B4A45
:1001500013602B4B02E000221A600433294A9342B9
:10016000F9D3254B1B6813B9244B1B6803B1FEE779
:1001700000F086F9694601A800F022F9224C234BD1
:10018000E41AA4100025AC4214DC214C214BE41AE3
:10019000A4100025AC4213DC0099019800F0D4FFB4
:1001A00005461D4C1D4BE41AA410002C0EDC2846FD
:1001B00000F0E2F8154B53F8253098470135E2E797
:1001C000144B53F8253098470135E3E7013C134BB6
:1001D00053F824309847E8E7BABADECA0000002096
:1001E0008C00002000000020301D0008900000203E
:1001F0007856341232547698900000203401002052
:1002000090000020380100207803000878030008DF
:1002100078030008780300087803000878030008D2
:1002200008B5FFF773FF00BEFEE71EF0040F0CBF1A
:10023000EFF30880EFF309807146414A10472DE93A
:10024000F04182B004468846124B5E6B9F6B9D6AFC
:100250001B6B13F0020F03D00E4BDB6A002B0CDB81
:100260000D4800F0B5F8CDF800803B4632462946EF
:10027000204600F009F900BEFEE74BF6AB6100F046
:100280007DF90028ECD0034B4FF00042DA6202B057
:10029000BDE8F08100ED00E0501C000800BEFEE764
:1002A0001EF0040F0CBFEFF30880EFF309807146D6
:1002B000244A10472DE9F04182B004468846084B95
:1002C0005E6B9F6B9D6A074800F082F8CDF8008056
:1002D0003B4632462946204600F0D6F800BEFEE7EF
:1002E00000ED00E0601C00081EF0040F0CBFEFF3EF
:1002F0000880EFF309807146134A10472DE9F04159
:1003000082B004468846084B5E6B9F6B9D6A074827
:1003100000F05EF8CDF800803B4632462946204684
:1003200000F0B2F800BEFEE700ED00E06C1C000833
:1003300000BEFEE700BEFEE700BEFEE7704700001D
:100340003F020008B5020008FD02000800BEFEE7FB
:10035000301D00080000002090000020301D000823
:100360000000000000000000900000203801002084
:08037000000000000000000085
:10037800FEE7000008B503460C4A12685AB10B4A5A
:100388001068033323F003030344094A934206D851
:10039800064A136008BD054A06491160EFE700F0F8
:1003A80075FF0C2303604FF0FF30F3E79400002043
:1003B800004C00203801002001230360014B0B6032
:1003C800704700BF040000200FB400B583B004AB31
:1003D80053F8042B01938021064800F0A9FF002858
:1003E80003DD0146034800F037F803B05DF804EB7D
:1003F80004B070479C0000202DE9F04385B0044606
:100408000F4643560BB10E461EE0042528462146EA
:10041800ABBE0446384605B0BDE8F08314F9011BAD
:1004280004AA1A4402F8101C0133AB42F6D304AAFA
:100438001344002203F8102C4FF00408E946404604
:100448004946ABBE8046761B002EE3D03546102EBB
:1004580028BF10250023E8E708B5FFF7CDFF08BD42
:1004680008B500F0FDF8024A024B9A6008BD00BFCB
:100478000000000800ED00E008B500F019F908BD1B
:10048800F8B504460D4617461E462748FFF79CFF59
:1004980021682648FFF798FF61682548FFF794FF11
:1004A800A1682448FFF790FFE1682348FFF78CFF15
:1004B80021692248FFF788FF61692148FFF784FF17
:1004C800A1692048FFF780FFE1691F48FFF77CFF1B
:1004D8001E48FFF779FF29461D48FFF775FF1D4C99
:1004E800E16A1D48FFF770FF216B1C48FFF76CFF9E
:1004F800E16B1B48FFF768FF15F0800F0AD115F470
:10050800004F0CD11748FFF75FFF06991648FFF711
:100518005BFFF8BD39461548FFF756FFEFE7314650
:100528001348FFF751FFEDE7341B0008441B000890
:10053800541B0008641B0008741B0008841B000877
:10054800941B0008A41B0008B41B0008C41B000867
:10055800D01B000800ED00E0E01B0008F01B0008BD
:10056800001C0008301C0008381C0008101C00087B
:10057800201C000883691A888A4201D0002070472D
:100588000268033A012A03D80233836101207047C5
:100598000020704782B00023019300932C4A13680F
:1005A80043F4803313602A4B1B6803F40033009331
:1005B800019B01330193009B1BB9019BB3F5A06F0D
:1005C800F1D1234B1B6813F4003F06D0012300939D
:1005D800009B012B04D002B0704700230093F7E77B
:1005E8001C4B1A6842F010021A601A6822F00302C3
:1005F8001A601A6842F002021A60A3F580535A681A
:100608005A605A685A605A6842F480625A605A6856
:1006180022F47C125A605A6842F4E8125A601A6846
:1006280042F080721A600A4B1B6813F0007FFAD000
:10063800074B5A6822F003025A605A6842F00202D5
:100648005A60034B5B6803F00C03082BF9D1C2E72F
:10065800001002400020024008B5FFF79BFF08BDCC
:1006680008B5104B1A6842F001021A6059680E4A20
:100678000A405A601A6822F0847222F480321A60A2
:100688001A6822F480221A605A6822F4FE025A601C
:100698004FF41F029A60FFF7DFFF044B4FF0006230
:1006A8009A6008BD001002400000FFF800ED00E06D
:1006B8001F4B5B6803F00C03042B15D0082B17D0D5
:1006C8001BB11C4B1C4A1A6002E01A4B1A4A1A60EA
:1006D800174B5B68C3F30313184AD35CDAB21549A6
:1006E8000B68D3400B607047124B134A1A60EFE750
:1006F8000F4A53685268C3F38343023312F4803FAE
:100708000AD00B4A526812F4003F0BD00C4A02FB85
:1007180003F3084A1360DBE7094A02FB03F3054ABF
:100728001360D5E7044A02FB03F3024A1360CFE7DC
:10073800001002401C00002000127A000C0000206B
:1007480000093D0003281ED8DFE800F002080F1654
:10075800012303FA01F10D4B19617047012303FAD4
:1007680001F10B4B196100207047012303FA01F1D5
:10077800084B196100207047012303FA01F1064B69
:100788001961002070470120704700BF0008014030
:10079800000C0140001001400014014003281ED83D
:1007A800DFE800F002080F16012303FA01F10D4BF0
:1007B80059617047012303FA01F10B4B596100207D
:1007C8007047012303FA01F1084B59610020704773
:1007D800012303FA01F1064B5961002070470120FB
:1007E800704700BF00080140000C014000100140A4
:1007F8000014014008B5020900F00F0331B10129C6
:1008080009D119461046FFF79DFF08BD1946104645
:10081800FFF7C4FFF9E70120F7E70000F0B4020989
:1008280000F00F03072B3FD8032A79D8DFE802F03E
:100838000215222F9F0001FA07F0644E34680F2535
:10084800BD4024EA050420433060104608296BD0D7
:100858000C2900F08F80F0BC70479F0001FA07F068
:100868005B4E34680F25BD4024EA05042043306000
:100878000020EBE79F0001FA07F0564E34680F2579
:10088800BD4024EA0504204330600020DEE79F00D5
:1008980001FA07F0504E34680F25BD4024EA0504DC
:1008A800204330600020D1E7083BDBB2032A39D867
:1008B800DFE802F0020F1C299F0001FA07F0434EFF
:1008C80074680F25BD4024EA050420437060104673
:1008D800BCE79F0001FA07F03D4E74680F25BD4044
:1008E80024EA0504204370600020AFE79F0001FA66
:1008F80007F0384E74680F25BD4024EA05042043EC
:1009080070600020A2E79F0001FA07F0324E746879
:100918000F25BD4024EA050420437060002095E7B8
:10092800012093E7012091E7032A94D8DFE802F039
:10093800020A121A012202FA03F32449CA681A4366
:10094800CA6088E7012202FA03F32149CA681A43F8
:10095800CA6080E7012202FA03F31E49CA681A43F3
:10096800CA6078E7012202FA03F31B49CA681A43EE
:10097800CA6070E7032A3FF66EAFDFE802F0020BA9
:10098800141D012202FA03F31049CA6822EA03027D
:10099800CA6060E7012202FA03F30D49CA6822EA35
:1009A8000302CA6057E7012202FA03F30949CA6839
:1009B80022EA0302CA604EE7012202FA03F306495B
:1009C800CA6822EA0302CA6045E700BF000801407E
:1009D800000C0140001001400014014008B502213C
:1009E8000020FFF71BFF02210120FFF717FF02215C
:1009F8000846FFF713FF02210320FFF70FFF02212C
:100A08000420FFF70BFF02210520FFF707FF022153
:100A18000620FFF703FF02210720FFF7FFFE022150
:100A28000820FFF7FBFE02210920FFF7F7FE02214D
:100A38000A20FFF7F3FE02210B20FFF7EFFE022149
:100A48000C20FFF7EBFE02210D20FFF7E7FE022145
:100A58000E20FFF7E3FE02210F20FFF7DFFE08213B
:100A68001020FFF7DBFE08211120FFF7D7FE022137
:100A78001220FFF7D3FE02211320FFF7CFFE022139
:100A88001420FFF7CBFE02211520FFF7C7FE022135
:100A98001620FFF7C3FE02211720FFF7BFFE022131
:100AA8001820FFF7BBFE02211920FFF7B7FE082127
:100AB8001A20FFF7B3FE08211B20FFF7AFFE022123
:100AC8001C20FFF7ABFE02211D20FFF7A7FE022125
:100AD8001E20FFF7A3FE02211F20FFF79FFE022121
:100AE8002D20FFF79BFE0C212E20FFF797FE0C21EF
:100AF8002F20FFF793FE0C213020FFF78FFE0C21EB
:100B08003120FFF78BFE08BD0346000903F00F03F1
:100B1800032826D8DFE800F0020A131C124A92685C
:100B280022FA03F303F001030B7070470F4A906831
:100B380020FA03F303F001030B70002070470C4AFE
:100B4800906820FA03F303F001030B70002070474C
:100B5800084A906820FA03F303F001030B700020A1
:100B680070470120704700BF00080140000C014099
:100B7800001001400014014010B5002406E00021D7
:100B8800094B185DFFF736FE0134E4B2032CF6D9A1
:100B9800002406E00121054B185DFFF72BFE013408
:100BA800E4B2032CF6D910BD240000202000002058
:100BB8002DE9F04182B0074620B14FF0000800252A
:100BC8002E462FE04FF00108F9E70021194B185D78
:100BD800FFF710FE0134E4B2032C07D8A642F4D084
:100BE8000121144B185DFFF705FEF3E7002408E028
:100BF80000237B559DF807307B550135EDB2013454
:100C0800E4B2032C0CD80DF107010B4B185DFFF76C
:100C18007BFF9DF80730002BEAD101237B55E9E7DC
:100C28000136F6B2032E01D80024D5E7404602B0BB
:100C3800BDE8F081240000202000002010B5044603
:100C480000F001010020FFF7D5FDC4F340010120A9
:100C5800FFF7D0FDC4F380010220FFF7CBFDC4F3FA
:100C6800C0010320FFF7C6FDC4F300110420FFF7FD
:100C7800C1FDC4F340110520FFF7BCFDC4F380118A
:100C88000620FFF7B7FDE1090720FFF7B3FD0021B4
:100C98000920FFF7AFFD00210A20FFF7ABFD012176
:100CA8000B20FFF7A7FD40F6B83000F0D3F800217D
:100CB8000B20FFF79FFD4FF47A7000F0CBF800206F
:100CC80010BD08B500210B20FFF794FD4FF4FA6022
:100CD80000F0C0F83820FFF7B1FF0E20FFF7AEFF95
:100CE8004FF47A7000F0B6F80120FFF7A7FF41F241
:100CF800883000F0AFF80620FFF7A0FF08BD10B558
:100D0800044600F001010020FFF774FDC4F3400120
:100D18000120FFF76FFDC4F380010220FFF76AFD91
:100D2800C4F3C0010320FFF765FDC4F300110420DC
:100D3800FFF760FDC4F340110520FFF75BFDC4F326
:100D480080110620FFF756FDE1090720FFF752FD45
:100D580001210920FFF74EFD00210A20FFF74AFD77
:100D680001210B20FFF746FD4FF4FA7000F072F8EE
:100D780000210B20FFF73EFD4FF4FA7000F06AF8EF
:100D8800002010BD0F2924D838B50546012A01D9FD
:100D9800012038BD9401E4B20C4464F07F04E4B24D
:100DA8002046FFF74BFF03E0C020FFF747FFC024B2
:100DB80028780028EDD0FFF7A2FF01350134E4B20E
:100DC800902CF1D0D02CF3D18020FFF737FF80246E
:100DD800EEE70120704708B50120FFF72FFF00203C
:100DE80008BD0000074A937843F001039370054B50
:100DF8009B7813F0020FFAD0024A536843F00303BA
:100E0800536070470010024003281ED8DFE800F046
:100E180002080F160E4A137E43F004031376704738
:100E28000B4A137E43F00803137600207047084AE4
:100E3800137E43F01003137600207047044A137E94
:100E480043F020031376002070470120704700BF4D
:100E58000010024000220EE000BF00BF00BF00BF2C
:100E680000BF00BF00BF00BF01339BB2B3F5937F43
:100E7800F2D9013292B2824201D20023F6E77047DA
:100E880030B585B004460D466846FFF791FE9DF8DB
:100E98000030002B52D09DF80130002B69D09DF80E
:100EA8000230002B72D09DF80330002B7BD09DF8C8
:100EB8000430002B00F084809DF80530002B00F0F2
:100EC8008C809DF80630002B00F094809DF8073048
:100ED800002B00F09C809DF80830002B00F0A480C7
:100EE8009DF80930002B00F0AC809DF80A30002BEB
:100EF80000F0B4809DF80B30002B00F0BC809DF80A
:100F08000C30002B00F0C4809DF80D30002B00F051
:100F1800CC809DF80E30002B00F0D4809DF80F3067
:100F2800C3B9734B25221A702A4621467148FFF728
:100F380029FF4FF47A70FFF78DFF0BE06E4B01220B
:100F48001A702A4621466D48FFF71CFF4FF47A7045
:100F5800FFF780FF6A4B1B78002B00F0C080694BBD
:100F68001B78002B40F0C180634B1A78654B1A70D0
:100F7800BBE0614B04221A702A4621466248FFF7FB
:100F880001FF4FF47A70FFF765FFE3E75A4B07223A
:100F98001A702A4621465D48FFF7F4FE4FF47A702E
:100FA800FFF758FFD6E7524B2A221A702A462146E5
:100FB8005748FFF7E7FE4FF47A70FFF74BFFC9E792
:100FC8004D4B02221A702A4621465248FFF7DAFE94
:100FD8004FF47A70FFF73EFFBCE7474B05221A70C3
:100FE8002A4621464C48FFF7CDFE4FF47A70FFF7AA
:100FF80031FFAFE7404B08221A702A46214647487E
:10100800FFF7C0FE4FF47A70FFF724FFA2E73A4BD0
:1010180000221A702A4621464148FFF7B3FE4FF4D2
:101028007A70FFF717FF95E7334B03221A702A46A9
:1010380021463C48FFF7A6FE4FF47A70FFF70AFFF7
:1010480088E72D4B06221A702A4621463648FFF7B4
:1010580099FE4FF47A70FFF7FDFE7BE7264B0922D5
:101068001A702A4621463148FFF78CFE4FF47A70F1
:10107800FFF7F0FE6EE71E4B23221A702A46214620
:101088002B48FFF77FFE4FF47A70FFF7E3FE61E726
:10109800174B2B221A702A4621462648FFF772FE64
:1010A8004FF47A70FFF7D6FE54E7114B2D221A70D1
:1010B8002A4621462048FFF765FE4FF47A70FFF76D
:1010C800C9FE47E70A4B2F221A702A4621461B48B9
:1010D800FFF758FE4FF47A70FFF7BCFE3AE7064B6D
:1010E8001978074A117000221A7005B030BD00BF88
:1010F8001D010020B81C00081C0100207C1C0008F1
:10110800300100202E010020801C0008841C0008EB
:10111800881C00088C1C0008901C0008941C0008FF
:10112800981C00089C1C0008A01C0008A41C0008AF
:10113800A81C0008AC1C0008B01C0008B41C00085F
:1011480010B58EB0FFF74EFE0020FFF75DFE0120C0
:10115800FFF75AFE0220FFF757FE0320FFF754FE61
:10116800FFF73CFCFFF708FDFFF7ABFD56E0002159
:101178000520FFF785FE3B4B1B78002BF7D042F28A
:101188001070FFF767FE03E001210520FFF778FEE6
:10119800354B1B78002BF7D041F28830FFF75AFE09
:1011A800FFF719FE002211463048FFF7EBFD03E078
:1011B80000210D20FFF764FE2D4B1B78002BF7D084
:1011C80042F21070FFF746FEFFF705FE254B19782F
:1011D800254B1A788C18264B1B782A3B052B3AD8B6
:1011E800DFE803F003053937393402FB01F42246FE
:1011F800204901A800F050F80022114601A8FFF785
:10120800C1FD4CF25030FFF725FE0023184A137039
:10121800154A1370134A1370174A1370FFF7DBFD52
:10122800002204211548FFF7ADFD42F21070FFF7C8
:1012380011FEFFF7D0FD002211461148FFF7A2FD6D
:10124800012200210F48FFF79DFD94E7B1FBF2F45E
:10125800CDE78C1ACBE7002211460B48FFF792FD29
:10126800C5E700BF300100202E010020D41C000873
:101278001D010020F01C00081C010020BC1C0008F7
:10128800C41C0008CC1C0008E01C0008014B1868AE
:10129800704700BF280000200EB46FF0004100B571
:1012A8009CB01DAB0290069007910491084809492B
:1012B80053F8042B0591006802A9019300F0A0F8E7
:1012C8000022029B1A701CB05DF804EB03B0704753
:1012D800280000200802FFFF30B5141E05469BB009
:1012E800184605DA8B234FF0FF302B601BB030BD5A
:1012F8004FF40273ADF80C300CBF234604F1FF33F2
:10130800029305934FF6FF7300910491ADF80E30E8
:1013180002461E9B6946284600F072F8431CBCBF73
:101328008B232B60002CE1D00022009B1A70DDE794
:1013380007B5009313460A46014603480068FFF7BD
:10134800CBFF03B05DF804FB280000202DE9F0472F
:101358008E6882469E420C469046994637D88A89BE
:1013680012F4906F31D00223256809696F1A6569F4
:1013780005EB450595FBF3F509F101033B449D4257
:1013880038BF1D46530530D5294600F035FB0646C3
:1013980050B90C234FF0FF30CAF80030A38943F04E
:1013A8004003A381BDE8F0873A46216900F0B4FA0A
:1013B800A38923F4906343F08003A38126613E440C
:1013C80026604E466561ED1BA5604E4500D94E4628
:1013D80032464146206800F0AAFAA36800209B1B09
:1013E800A36023681E442660DCE72A4600F05EFB03
:1013F80006460028E2D12169504600F0B1FAC8E754
:101408002DE9F04F9DB003938B8980461D060C464D
:1014180016460FD50B696BB9402100F0EDFA206034
:10142800206128B90C23C8F800304FF0FF30C7E01E
:10143800402363610023099320238DF8293030234A
:101448004FF0010B8DF82A3037463D4615F8013B21
:101458000BB1252B3ED1B7EB060A0BD053463246CB
:1014680021464046FFF772FF013000F0A480099B37
:10147800534409933B78002B00F09D8000234FF0E4
:10148800FF32CDE90523049307938DF853301A935F
:101498002F46052217F8011B4F4800F02FFA049B2E
:1014A800D0B9D90644BF20228DF853201A0744BF6B
:1014B8002B228DF853202A782A2A15D02F4600206F
:1014C8000A25079A394611F8013B303B092B4DD9BB
:1014D800B8B10FE02F46B8E73F4A3D46801A0BFAED
:1014E80000F018430490D3E7039A111D1268039182
:1014F800002A01DB079204E0524243F002030792FC
:1015080004933B782E2B0CD17B782A2B33D1039B69
:1015180002371A1D1B680392002BB8BF4FF0FF3328
:1015280005932E4D03223978284600F0E7F938B1A3
:101538004023401B03FA00F0049B01370343049344
:101548003978062226487E1C8DF8281000F0D6F936
:10155800002838D0234B13BB039B073323F0070322
:1015680008330393099B4B4409936DE705FB02324B
:1015780001200F46A6E700230A25194601370593DF
:10158800384610F8012B303A092A03D9002BC8D065
:101598000591C6E705FB012101230746F0E703ABE8
:1015A80000932246104B04A94046AFF30080B0F1E7
:1015B800FF3F8146D6D1A3895B063FF536AF099830
:1015C8001DB0BDE8F08F03AB00932246064B04A97B
:1015D800404600F081F8EAE7FC1C0008021D0008FC
:1015E800061D000800000000551300082DE9F0470B
:1015F80091461F468A680B6906469342B8BF134650
:10160800C9F8003091F843200C46DDF8208012B16B
:101618000133C9F800302368990642BFD9F8003071
:101628000233C9F80030256815F0060507D104F122
:10163800190AE368D9F800209B1AAB4229DC94F810
:1016480043302268003318BF012392062ED404F1D8
:10165800430239463046C047013021D02368E56847
:1016680003F00603042B18BF0025D9F800204FF01B
:10167800000908BFAD1AA368226908BF25EAE57505
:101688009342C4BF9B1AED181A344D451AD1002055
:1016980008E00123524639463046C047013003D19D
:1016A8004FF0FF30BDE8F0870135C2E73020E11880
:1016B80081F843005A1C94F845102244023382F8FA
:1016C8004310C4E70123224639463046C04701305B
:1016D800E6D009F10109D8E72DE9F04301F1430CFF
:1016E8000C46097E85B06E291746064698460C9A20
:1016F80000F0B38022D8632936D00AD8002900F038
:10170800B980582900F0838004F1420584F842101A
:1017180032E0642901D06929F6D1206813680506EA
:1017280003F104012AD51B681160002B03DA2D226E
:101738005B4284F843206F480A2239E0732900F09D
:101748009D8008D86F2920D07029DDD1236843F007
:101758002003236003E0752917D07829D4D1782392
:10176800654884F8453055E0136804F14205191DB1
:101778001B68116084F8423001238CE01B6810F06C
:10178800400F116018BF1BB2CFE713682568181DFA
:101798001060280601D51B6802E06806FBD51B8887
:1017A8006F2914BF0A2208225248002184F84310E6
:1017B8006568002DA560C0F29580216821F00401BC
:1017C8002160002B3DD1002D40F08E806546082A0F
:1017D8000BD12368DB0708D5236962689A42DEBF0C
:1017E800302305F8013C05F1FF35ACEB0503236117
:1017F800CDF800803B4603AA21463046FFF7F6FEA7
:1018080001304DD14FF0FF3005B0BDE8F0833948C5
:1018180084F84510136821681D1D1B6815600A06A9
:101828000BD5CA0744BF41F0200121601BB92268CB
:1018380022F0200222601022B7E74D0648BF9BB273
:10184800EFE76546B3FBF2F102FB1133C35C05F821
:10185800013D0B460029F5D1B9E713682568181D25
:101868006169106028061B6801D5196002E06A06E4
:10187800FBD51980002365462361B9E71368191D54
:1018880011601D6862680021284600F037F808B129
:10189800401B606063682361002384F84330A7E736
:1018A80023692A4639463046C0470130AAD0236802
:1018B8009B0713D4E068039B9842B8BF1846A3E778
:1018C80001234A4639463046C04701309AD001358F
:1018D800E368039A9B1AAB42F2DCEBE7002504F1BC
:1018E8001909F5E7002BACD1037804F1420584F817
:1018F80042306CE70D1D00081E1D000810B5C9B266
:1019080002449042034601D1002303E01C780130D1
:101918008C42F6D1184610BD10B5431E0A449142B8
:1019280000D110BD11F8014B03F8014FF7E78842C9
:1019380010B501EB020307D8421E99420AD011F8EC
:10194800014B02F8014FF8E78342F5D98118D21A02
:10195800D34200D110BD13F8014D01F8014DF7E74E
:1019680038B50546002943D051F8043C0C1F002B1C
:10197800B8BFE41800F0D0F81E4A1368104633B90F
:10198800636014602846BDE8384000F0C6B8A3423A
:101998000BD921686218934201BF1A685B68521814
:1019A800226063600460EDE713465A680AB1A242F8
:1019B800FAD919685818A0420BD120680144581860
:1019C80082421960DED110685268014419605A6079
:1019D800D8E702D90C232B60D4E7206821188A4263
:1019E80001BF116852680918216062605C60C9E72C
:1019F80038BD00BF2001002070B5CD1C25F00305BF
:101A080008350C2D38BF0C25002D064601DBA942F0
:101A180003D90C233360002070BD00F07DF8214A03
:101A28001468214691B9204C23681BB9304600F050
:101A380063F820602946304600F05EF8431C24D144
:101A48000C233046336000F068F8E4E70B685B1B52
:101A580018D40B2B0FD90B60CC18CD50304600F0A2
:101A68005CF804F10B00231D20F00700C31AD3D043
:101A78005A42E250D0E74B688C4216BF636013604D
:101A88000C46EBE70C464968CCE7C41C24F0030479
:101A9800A04205D0211A304600F02EF80130CFD0F0
:101AA8002560DBE72001002024010020F8B5074667
:101AB80014460E4621B9BDE8F8401146FFF79CBF11
:101AC80022B9FFF74DFF25462846F8BD00F026F855
:101AD800A0420FD221463846FFF78EFF0546002860
:101AE800F2D031462246FFF717FF31463846FFF756
:101AF80037FFE9E73546E7E738B50023054C0546E3
:101B080008462360FEF736FC431C02D1236803B164
:101B18002B6038BD280100207047704751F8043CFD
:101B2800181F002BBCBF0B58C01870475374616353
:101B38006B206672616D653A0A0000002052302001
:101B48003D2020253038580A00000000205231205E
:101B58003D2020253038580A00000000205232204D
:101B68003D2020253038580A00000000205233203C
:101B78003D2020253038580A00000000205231321C
:101B8800203D20253038580A00000000204C522003
:101B98003D2020253038580A0000000020504320FE
:101BA8003D2020253038580A0000000020505352AC
:101BB800203D20253038580A000000004653522F97
:101BC8004641523A0A0000002043465352203D2025
:101BD80020253038580A00002048465352203D201E
:101BE80020253038580A00002044465352203D2012
:101BF80020253038580A00002041465352203D2005
:101C080020253038580A0000204D4D464152203DCD
:101C180020253038580A00002042464152203D20F5
:101C280020253038580A00004D6973630A00000007
:101C3800204C522F4558435F52455455524E3D2033
:101C4800253038580A0000005B48617264466175A7
:101C58006C745D0A000000005B4275734661756C28
:101C6800745D0A005B55736167654661756C745DE8
:101C78000A000000310000003400000037000000B6
:101C88002A00000032000000350000003800000083
:101C9800300000003300000036000000390000006A
:101CA800230000002B0000002D0000002F00000082
:101CB8002500000057656C636F6D65004F50313A21
:101CC800200000004F50323A200000004F7065722B
:101CD8006174696F6E3A20006675636B20796F7561
:101CE800203A44203A440000526573756C74203AD7
:101CF80020256400232D302B2000686C4C0065667D
:101D08006745464700303132333435363738394144
:101D1800424344454600303132333435363738395A
:071D2800616263646566005F
:101D300078563412980000200000000000000000D7
:101D400000000000010203040607080900A24A047B
:101D500010111A1B151617182C0000200000000087
:101D60000000000000000000000000000000000073
:101D70000000000000000000000000000000000063
:101D80000000000000000000000000000000000053
:101D90000000000000000000000000000000000043
:101DA0000000000000000000000000000000000033
:101DB000000000000000000000000000325476988F
:040000050800010DE1
:00000001FF
